{
  "_format": "hh-sol-artifact-1",
  "contractName": "RadicaProperty",
  "sourceName": "contracts/RadicaProperty.sol",
  "abi": [
    {
      "inputs": [
        {
          "internalType": "address",
          "name": "radicaTagAddr",
          "type": "address"
        }
      ],
      "stateMutability": "nonpayable",
      "type": "constructor"
    },
    {
      "inputs": [],
      "name": "ERC721EnumerableForbiddenBatchMint",
      "type": "error"
    },
    {
      "inputs": [
        {
          "internalType": "address",
          "name": "sender",
          "type": "address"
        },
        {
          "internalType": "uint256",
          "name": "tokenId",
          "type": "uint256"
        },
        {
          "internalType": "address",
          "name": "owner",
          "type": "address"
        }
      ],
      "name": "ERC721IncorrectOwner",
      "type": "error"
    },
    {
      "inputs": [
        {
          "internalType": "address",
          "name": "operator",
          "type": "address"
        },
        {
          "internalType": "uint256",
          "name": "tokenId",
          "type": "uint256"
        }
      ],
      "name": "ERC721InsufficientApproval",
      "type": "error"
    },
    {
      "inputs": [
        {
          "internalType": "address",
          "name": "approver",
          "type": "address"
        }
      ],
      "name": "ERC721InvalidApprover",
      "type": "error"
    },
    {
      "inputs": [
        {
          "internalType": "address",
          "name": "operator",
          "type": "address"
        }
      ],
      "name": "ERC721InvalidOperator",
      "type": "error"
    },
    {
      "inputs": [
        {
          "internalType": "address",
          "name": "owner",
          "type": "address"
        }
      ],
      "name": "ERC721InvalidOwner",
      "type": "error"
    },
    {
      "inputs": [
        {
          "internalType": "address",
          "name": "receiver",
          "type": "address"
        }
      ],
      "name": "ERC721InvalidReceiver",
      "type": "error"
    },
    {
      "inputs": [
        {
          "internalType": "address",
          "name": "sender",
          "type": "address"
        }
      ],
      "name": "ERC721InvalidSender",
      "type": "error"
    },
    {
      "inputs": [
        {
          "internalType": "uint256",
          "name": "tokenId",
          "type": "uint256"
        }
      ],
      "name": "ERC721NonexistentToken",
      "type": "error"
    },
    {
      "inputs": [
        {
          "internalType": "address",
          "name": "owner",
          "type": "address"
        },
        {
          "internalType": "uint256",
          "name": "index",
          "type": "uint256"
        }
      ],
      "name": "ERC721OutOfBoundsIndex",
      "type": "error"
    },
    {
      "inputs": [
        {
          "internalType": "address",
          "name": "owner",
          "type": "address"
        }
      ],
      "name": "OwnableInvalidOwner",
      "type": "error"
    },
    {
      "inputs": [
        {
          "internalType": "address",
          "name": "account",
          "type": "address"
        }
      ],
      "name": "OwnableUnauthorizedAccount",
      "type": "error"
    },
    {
      "inputs": [
        {
          "internalType": "uint256",
          "name": "value",
          "type": "uint256"
        },
        {
          "internalType": "uint256",
          "name": "length",
          "type": "uint256"
        }
      ],
      "name": "StringsInsufficientHexLength",
      "type": "error"
    },
    {
      "anonymous": false,
      "inputs": [
        {
          "indexed": true,
          "internalType": "address",
          "name": "owner",
          "type": "address"
        },
        {
          "indexed": true,
          "internalType": "address",
          "name": "approved",
          "type": "address"
        },
        {
          "indexed": true,
          "internalType": "uint256",
          "name": "tokenId",
          "type": "uint256"
        }
      ],
      "name": "Approval",
      "type": "event"
    },
    {
      "anonymous": false,
      "inputs": [
        {
          "indexed": true,
          "internalType": "address",
          "name": "owner",
          "type": "address"
        },
        {
          "indexed": true,
          "internalType": "address",
          "name": "operator",
          "type": "address"
        },
        {
          "indexed": false,
          "internalType": "bool",
          "name": "approved",
          "type": "bool"
        }
      ],
      "name": "ApprovalForAll",
      "type": "event"
    },
    {
      "anonymous": false,
      "inputs": [
        {
          "indexed": false,
          "internalType": "uint256",
          "name": "_fromTokenId",
          "type": "uint256"
        },
        {
          "indexed": false,
          "internalType": "uint256",
          "name": "_toTokenId",
          "type": "uint256"
        }
      ],
      "name": "BatchMetadataUpdate",
      "type": "event"
    },
    {
      "anonymous": false,
      "inputs": [
        {
          "indexed": false,
          "internalType": "uint256",
          "name": "_tokenId",
          "type": "uint256"
        }
      ],
      "name": "MetadataUpdate",
      "type": "event"
    },
    {
      "anonymous": false,
      "inputs": [
        {
          "indexed": true,
          "internalType": "address",
          "name": "previousOwner",
          "type": "address"
        },
        {
          "indexed": true,
          "internalType": "address",
          "name": "newOwner",
          "type": "address"
        }
      ],
      "name": "OwnershipTransferred",
      "type": "event"
    },
    {
      "anonymous": false,
      "inputs": [
        {
          "indexed": true,
          "internalType": "address",
          "name": "from",
          "type": "address"
        },
        {
          "indexed": true,
          "internalType": "address",
          "name": "to",
          "type": "address"
        },
        {
          "indexed": true,
          "internalType": "uint256",
          "name": "tokenId",
          "type": "uint256"
        }
      ],
      "name": "Transfer",
      "type": "event"
    },
    {
      "inputs": [
        {
          "internalType": "address",
          "name": "to",
          "type": "address"
        },
        {
          "internalType": "uint256",
          "name": "tokenId",
          "type": "uint256"
        }
      ],
      "name": "approve",
      "outputs": [],
      "stateMutability": "nonpayable",
      "type": "function"
    },
    {
      "inputs": [
        {
          "internalType": "address",
          "name": "owner",
          "type": "address"
        }
      ],
      "name": "balanceOf",
      "outputs": [
        {
          "internalType": "uint256",
          "name": "",
          "type": "uint256"
        }
      ],
      "stateMutability": "view",
      "type": "function"
    },
    {
      "inputs": [
        {
          "internalType": "uint256",
          "name": "tokenId",
          "type": "uint256"
        },
        {
          "internalType": "bytes32",
          "name": "proof",
          "type": "bytes32"
        }
      ],
      "name": "claimProperty",
      "outputs": [],
      "stateMutability": "nonpayable",
      "type": "function"
    },
    {
      "inputs": [
        {
          "internalType": "uint256",
          "name": "tokenId",
          "type": "uint256"
        }
      ],
      "name": "getApproved",
      "outputs": [
        {
          "internalType": "address",
          "name": "",
          "type": "address"
        }
      ],
      "stateMutability": "view",
      "type": "function"
    },
    {
      "inputs": [
        {
          "internalType": "address",
          "name": "owner",
          "type": "address"
        },
        {
          "internalType": "address",
          "name": "operator",
          "type": "address"
        }
      ],
      "name": "isApprovedForAll",
      "outputs": [
        {
          "internalType": "bool",
          "name": "",
          "type": "bool"
        }
      ],
      "stateMutability": "view",
      "type": "function"
    },
    {
      "inputs": [],
      "name": "name",
      "outputs": [
        {
          "internalType": "string",
          "name": "",
          "type": "string"
        }
      ],
      "stateMutability": "view",
      "type": "function"
    },
    {
      "inputs": [],
      "name": "owner",
      "outputs": [
        {
          "internalType": "address",
          "name": "",
          "type": "address"
        }
      ],
      "stateMutability": "view",
      "type": "function"
    },
    {
      "inputs": [
        {
          "internalType": "uint256",
          "name": "tokenId",
          "type": "uint256"
        }
      ],
      "name": "ownerOf",
      "outputs": [
        {
          "internalType": "address",
          "name": "",
          "type": "address"
        }
      ],
      "stateMutability": "view",
      "type": "function"
    },
    {
      "inputs": [],
      "name": "renounceOwnership",
      "outputs": [],
      "stateMutability": "nonpayable",
      "type": "function"
    },
    {
      "inputs": [
        {
          "internalType": "address",
          "name": "from",
          "type": "address"
        },
        {
          "internalType": "address",
          "name": "to",
          "type": "address"
        },
        {
          "internalType": "uint256",
          "name": "tokenId",
          "type": "uint256"
        }
      ],
      "name": "safeTransferFrom",
      "outputs": [],
      "stateMutability": "nonpayable",
      "type": "function"
    },
    {
      "inputs": [
        {
          "internalType": "address",
          "name": "from",
          "type": "address"
        },
        {
          "internalType": "address",
          "name": "to",
          "type": "address"
        },
        {
          "internalType": "uint256",
          "name": "tokenId",
          "type": "uint256"
        },
        {
          "internalType": "bytes",
          "name": "data",
          "type": "bytes"
        }
      ],
      "name": "safeTransferFrom",
      "outputs": [],
      "stateMutability": "nonpayable",
      "type": "function"
    },
    {
      "inputs": [
        {
          "internalType": "address",
          "name": "operator",
          "type": "address"
        },
        {
          "internalType": "bool",
          "name": "approved",
          "type": "bool"
        }
      ],
      "name": "setApprovalForAll",
      "outputs": [],
      "stateMutability": "nonpayable",
      "type": "function"
    },
    {
      "inputs": [
        {
          "internalType": "uint256",
          "name": "tokenId",
          "type": "uint256"
        },
        {
          "internalType": "bytes32",
          "name": "proofHash",
          "type": "bytes32"
        }
      ],
      "name": "setProof",
      "outputs": [],
      "stateMutability": "nonpayable",
      "type": "function"
    },
    {
      "inputs": [
        {
          "internalType": "bytes4",
          "name": "interfaceId",
          "type": "bytes4"
        }
      ],
      "name": "supportsInterface",
      "outputs": [
        {
          "internalType": "bool",
          "name": "",
          "type": "bool"
        }
      ],
      "stateMutability": "view",
      "type": "function"
    },
    {
      "inputs": [],
      "name": "symbol",
      "outputs": [
        {
          "internalType": "string",
          "name": "",
          "type": "string"
        }
      ],
      "stateMutability": "view",
      "type": "function"
    },
    {
      "inputs": [
        {
          "internalType": "uint256",
          "name": "index",
          "type": "uint256"
        }
      ],
      "name": "tokenByIndex",
      "outputs": [
        {
          "internalType": "uint256",
          "name": "",
          "type": "uint256"
        }
      ],
      "stateMutability": "view",
      "type": "function"
    },
    {
      "inputs": [
        {
          "internalType": "address",
          "name": "owner",
          "type": "address"
        },
        {
          "internalType": "uint256",
          "name": "index",
          "type": "uint256"
        }
      ],
      "name": "tokenOfOwnerByIndex",
      "outputs": [
        {
          "internalType": "uint256",
          "name": "",
          "type": "uint256"
        }
      ],
      "stateMutability": "view",
      "type": "function"
    },
    {
      "inputs": [
        {
          "internalType": "uint256",
          "name": "tokenId",
          "type": "uint256"
        }
      ],
      "name": "tokenURI",
      "outputs": [
        {
          "internalType": "string",
          "name": "",
          "type": "string"
        }
      ],
      "stateMutability": "view",
      "type": "function"
    },
    {
      "inputs": [],
      "name": "totalSupply",
      "outputs": [
        {
          "internalType": "uint256",
          "name": "",
          "type": "uint256"
        }
      ],
      "stateMutability": "view",
      "type": "function"
    },
    {
      "inputs": [
        {
          "internalType": "address",
          "name": "from",
          "type": "address"
        },
        {
          "internalType": "address",
          "name": "to",
          "type": "address"
        },
        {
          "internalType": "uint256",
          "name": "tokenId",
          "type": "uint256"
        }
      ],
      "name": "transferFrom",
      "outputs": [],
      "stateMutability": "nonpayable",
      "type": "function"
    },
    {
      "inputs": [
        {
          "internalType": "address",
          "name": "newOwner",
          "type": "address"
        }
      ],
      "name": "transferOwnership",
      "outputs": [],
      "stateMutability": "nonpayable",
      "type": "function"
    }
  ],
  "bytecode": "0x60806040523480156200001157600080fd5b5060405162003bea38038062003bea8339818101604052810190620000379190620003cc565b806040518060400160405280600e81526020017f52616469636150726f70657274790000000000000000000000000000000000008152506040518060400160405280600481526020017f52505250000000000000000000000000000000000000000000000000000000008152508160009081620000b5919062000678565b508060019081620000c7919062000678565b505050600073ffffffffffffffffffffffffffffffffffffffff168173ffffffffffffffffffffffffffffffffffffffff16036200013f5760006040517f1e4fbdf700000000000000000000000000000000000000000000000000000000815260040162000136919062000770565b60405180910390fd5b62000150816200029c60201b60201c565b5060008173ffffffffffffffffffffffffffffffffffffffff16306040516024016200017d919062000770565b6040516020818303038152906040527fb3c06e91000000000000000000000000000000000000000000000000000000007bffffffffffffffffffffffffffffffffffffffffffffffffffffffff19166020820180517bffffffffffffffffffffffffffffffffffffffffffffffffffffffff838183161783525050505060405162000209919062000806565b6000604051808303816000865af19150503d806000811462000248576040519150601f19603f3d011682016040523d82523d6000602084013e6200024d565b606091505b505090508062000294576040517f08c379a00000000000000000000000000000000000000000000000000000000081526004016200028b90620008a6565b60405180910390fd5b5050620008c8565b6000600b60009054906101000a900473ffffffffffffffffffffffffffffffffffffffff16905081600b60006101000a81548173ffffffffffffffffffffffffffffffffffffffff021916908373ffffffffffffffffffffffffffffffffffffffff1602179055508173ffffffffffffffffffffffffffffffffffffffff168173ffffffffffffffffffffffffffffffffffffffff167f8be0079c531659141344cd1fd0a4f28419497f9722a3daafe3b4186f6b6457e060405160405180910390a35050565b600080fd5b600073ffffffffffffffffffffffffffffffffffffffff82169050919050565b6000620003948262000367565b9050919050565b620003a68162000387565b8114620003b257600080fd5b50565b600081519050620003c6816200039b565b92915050565b600060208284031215620003e557620003e462000362565b5b6000620003f584828501620003b5565b91505092915050565b600081519050919050565b7f4e487b7100000000000000000000000000000000000000000000000000000000600052604160045260246000fd5b7f4e487b7100000000000000000000000000000000000000000000000000000000600052602260045260246000fd5b600060028204905060018216806200048057607f821691505b60208210810362000496576200049562000438565b5b50919050565b60008190508160005260206000209050919050565b60006020601f8301049050919050565b600082821b905092915050565b600060088302620005007fffffffffffffffffffffffffffffffffffffffffffffffffffffffffffffffff82620004c1565b6200050c8683620004c1565b95508019841693508086168417925050509392505050565b6000819050919050565b6000819050919050565b600062000559620005536200054d8462000524565b6200052e565b62000524565b9050919050565b6000819050919050565b620005758362000538565b6200058d620005848262000560565b848454620004ce565b825550505050565b600090565b620005a462000595565b620005b18184846200056a565b505050565b5b81811015620005d957620005cd6000826200059a565b600181019050620005b7565b5050565b601f8211156200062857620005f2816200049c565b620005fd84620004b1565b810160208510156200060d578190505b620006256200061c85620004b1565b830182620005b6565b50505b505050565b600082821c905092915050565b60006200064d600019846008026200062d565b1980831691505092915050565b60006200066883836200063a565b9150826002028217905092915050565b6200068382620003fe565b67ffffffffffffffff8111156200069f576200069e62000409565b5b620006ab825462000467565b620006b8828285620005dd565b600060209050601f831160018114620006f05760008415620006db578287015190505b620006e785826200065a565b86555062000757565b601f19841662000700866200049c565b60005b828110156200072a5784890151825560018201915060208501945060208101905062000703565b868310156200074a578489015162000746601f8916826200063a565b8355505b6001600288020188555050505b505050505050565b6200076a8162000387565b82525050565b60006020820190506200078760008301846200075f565b92915050565b600081519050919050565b600081905092915050565b60005b83811015620007c3578082015181840152602081019050620007a6565b60008484015250505050565b6000620007dc826200078d565b620007e8818562000798565b9350620007fa818560208601620007a3565b80840191505092915050565b6000620008148284620007cf565b915081905092915050565b600082825260208201905092915050565b7f43616c6c20746f2073657452616469636150726f70657274794164647220666160008201527f696c656400000000000000000000000000000000000000000000000000000000602082015250565b60006200088e6024836200081f565b91506200089b8262000830565b604082019050919050565b60006020820190508181036000830152620008c1816200087f565b9050919050565b61331280620008d86000396000f3fe608060405234801561001057600080fd5b50600436106101375760003560e01c80636352211e116100b8578063a22cb4651161007c578063a22cb4651461034e578063b88d4fde1461036a578063c0c98d6f14610386578063c87b56dd146103a2578063e985e9c5146103d2578063f2fde38b1461040257610137565b80636352211e146102a857806370a08231146102d8578063715018a6146103085780638da5cb5b1461031257806395d89b411461033057610137565b806323b872dd116100ff57806323b872dd146101f45780632f745c591461021057806342842e0e146102405780634f6ccce71461025c5780635e33b0e31461028c57610137565b806301ffc9a71461013c57806306fdde031461016c578063081812fc1461018a578063095ea7b3146101ba57806318160ddd146101d6575b600080fd5b6101566004803603810190610151919061256f565b61041e565b60405161016391906125b7565b60405180910390f35b610174610430565b6040516101819190612662565b60405180910390f35b6101a4600480360381019061019f91906126ba565b6104c2565b6040516101b19190612728565b60405180910390f35b6101d460048036038101906101cf919061276f565b6104de565b005b6101de6104f4565b6040516101eb91906127be565b60405180910390f35b61020e600480360381019061020991906127d9565b610501565b005b61022a6004803603810190610225919061276f565b610603565b60405161023791906127be565b60405180910390f35b61025a600480360381019061025591906127d9565b6106ac565b005b610276600480360381019061027191906126ba565b6106cc565b60405161028391906127be565b60405180910390f35b6102a660048036038101906102a19190612862565b610742565b005b6102c260048036038101906102bd91906126ba565b610802565b6040516102cf9190612728565b60405180910390f35b6102f260048036038101906102ed91906128a2565b610814565b6040516102ff91906127be565b60405180910390f35b6103106108ce565b005b61031a6108e2565b6040516103279190612728565b60405180910390f35b61033861090c565b6040516103459190612662565b60405180910390f35b610368600480360381019061036391906128fb565b61099e565b005b610384600480360381019061037f9190612a70565b6109b4565b005b6103a0600480360381019061039b9190612862565b6109d1565b005b6103bc60048036038101906103b791906126ba565b610a4d565b6040516103c99190612662565b60405180910390f35b6103ec60048036038101906103e79190612af3565b610a5f565b6040516103f991906125b7565b60405180910390f35b61041c600480360381019061041791906128a2565b610af3565b005b600061042982610b79565b9050919050565b60606000805461043f90612b62565b80601f016020809104026020016040519081016040528092919081815260200182805461046b90612b62565b80156104b85780601f1061048d576101008083540402835291602001916104b8565b820191906000526020600020905b81548152906001019060200180831161049b57829003601f168201915b5050505050905090565b60006104cd82610bda565b506104d782610c62565b9050919050565b6104f082826104eb610c9f565b610ca7565b5050565b6000600880549050905090565b600073ffffffffffffffffffffffffffffffffffffffff168273ffffffffffffffffffffffffffffffffffffffff16036105735760006040517f64a0ae9200000000000000000000000000000000000000000000000000000000815260040161056a9190612728565b60405180910390fd5b60006105878383610582610c9f565b610cb9565b90508373ffffffffffffffffffffffffffffffffffffffff168173ffffffffffffffffffffffffffffffffffffffff16146105fd578382826040517f64283d7b0000000000000000000000000000000000000000000000000000000081526004016105f493929190612b93565b60405180910390fd5b50505050565b600061060e83610814565b82106106535782826040517fa57d13dc00000000000000000000000000000000000000000000000000000000815260040161064a929190612bca565b60405180910390fd5b600660008473ffffffffffffffffffffffffffffffffffffffff1673ffffffffffffffffffffffffffffffffffffffff168152602001908152602001600020600083815260200190815260200160002054905092915050565b6106c7838383604051806020016040528060008152506109b4565b505050565b60006106d66104f4565b821061071c576000826040517fa57d13dc000000000000000000000000000000000000000000000000000000008152600401610713929190612bca565b60405180910390fd5b600882815481106107305761072f612bf3565b5b90600052602060002001549050919050565b806040516020016107539190612c31565b60405160208183030381529060405280519060200120600c600084815260200190815260200160002054146107bd576040517f08c379a00000000000000000000000000000000000000000000000000000000081526004016107b490612c98565b60405180910390fd5b60006107c883610ccf565b6040516020016107d89190612d40565b60405160208183030381529060405290506107f33384610ced565b6107fd8382610d0b565b505050565b600061080d82610bda565b9050919050565b60008073ffffffffffffffffffffffffffffffffffffffff168273ffffffffffffffffffffffffffffffffffffffff16036108875760006040517f89c62b6400000000000000000000000000000000000000000000000000000000815260040161087e9190612728565b60405180910390fd5b600360008373ffffffffffffffffffffffffffffffffffffffff1673ffffffffffffffffffffffffffffffffffffffff168152602001908152602001600020549050919050565b6108d6610d67565b6108e06000610dee565b565b6000600b60009054906101000a900473ffffffffffffffffffffffffffffffffffffffff16905090565b60606001805461091b90612b62565b80601f016020809104026020016040519081016040528092919081815260200182805461094790612b62565b80156109945780601f1061096957610100808354040283529160200191610994565b820191906000526020600020905b81548152906001019060200180831161097757829003601f168201915b5050505050905090565b6109b06109a9610c9f565b8383610eb4565b5050565b6109bf848484610501565b6109cb84848484611023565b50505050565b6109d9610d67565b6000801b600c60008481526020019081526020016000205414610a31576040517f08c379a0000000000000000000000000000000000000000000000000000000008152600401610a2890612dae565b60405180910390fd5b80600c6000848152602001908152602001600020819055505050565b6060610a58826111da565b9050919050565b6000600560008473ffffffffffffffffffffffffffffffffffffffff1673ffffffffffffffffffffffffffffffffffffffff16815260200190815260200160002060008373ffffffffffffffffffffffffffffffffffffffff1673ffffffffffffffffffffffffffffffffffffffff16815260200190815260200160002060009054906101000a900460ff16905092915050565b610afb610d67565b600073ffffffffffffffffffffffffffffffffffffffff168173ffffffffffffffffffffffffffffffffffffffff1603610b6d5760006040517f1e4fbdf7000000000000000000000000000000000000000000000000000000008152600401610b649190612728565b60405180910390fd5b610b7681610dee565b50565b6000634906490660e01b7bffffffffffffffffffffffffffffffffffffffffffffffffffffffff1916827bffffffffffffffffffffffffffffffffffffffffffffffffffffffff19161480610bd35750610bd2826112ed565b5b9050919050565b600080610be683611367565b9050600073ffffffffffffffffffffffffffffffffffffffff168173ffffffffffffffffffffffffffffffffffffffff1603610c5957826040517f7e273289000000000000000000000000000000000000000000000000000000008152600401610c5091906127be565b60405180910390fd5b80915050919050565b60006004600083815260200190815260200160002060009054906101000a900473ffffffffffffffffffffffffffffffffffffffff169050919050565b600033905090565b610cb483838360016113a4565b505050565b6000610cc6848484611569565b90509392505050565b6060610ce6826001610ce085611686565b01611716565b9050919050565b610d0782826040518060200160405280600081525061195c565b5050565b80600a60008481526020019081526020016000209081610d2b9190612f7a565b507ff8e1a15aba9398e019f0b49df1a4fde98ee17ae345cb5f6b5e2c27f5033e8ce782604051610d5b91906127be565b60405180910390a15050565b610d6f610c9f565b73ffffffffffffffffffffffffffffffffffffffff16610d8d6108e2565b73ffffffffffffffffffffffffffffffffffffffff1614610dec57610db0610c9f565b6040517f118cdaa7000000000000000000000000000000000000000000000000000000008152600401610de39190612728565b60405180910390fd5b565b6000600b60009054906101000a900473ffffffffffffffffffffffffffffffffffffffff16905081600b60006101000a81548173ffffffffffffffffffffffffffffffffffffffff021916908373ffffffffffffffffffffffffffffffffffffffff1602179055508173ffffffffffffffffffffffffffffffffffffffff168173ffffffffffffffffffffffffffffffffffffffff167f8be0079c531659141344cd1fd0a4f28419497f9722a3daafe3b4186f6b6457e060405160405180910390a35050565b600073ffffffffffffffffffffffffffffffffffffffff168273ffffffffffffffffffffffffffffffffffffffff1603610f2557816040517f5b08ba18000000000000000000000000000000000000000000000000000000008152600401610f1c9190612728565b60405180910390fd5b80600560008573ffffffffffffffffffffffffffffffffffffffff1673ffffffffffffffffffffffffffffffffffffffff16815260200190815260200160002060008473ffffffffffffffffffffffffffffffffffffffff1673ffffffffffffffffffffffffffffffffffffffff16815260200190815260200160002060006101000a81548160ff0219169083151502179055508173ffffffffffffffffffffffffffffffffffffffff168373ffffffffffffffffffffffffffffffffffffffff167f17307eab39ab6107e8899845ad3d59bd9653f200f220920489ca2b5937696c318360405161101691906125b7565b60405180910390a3505050565b60008373ffffffffffffffffffffffffffffffffffffffff163b11156111d4578273ffffffffffffffffffffffffffffffffffffffff1663150b7a02611067610c9f565b8685856040518563ffffffff1660e01b815260040161108994939291906130a1565b6020604051808303816000875af19250505080156110c557506040513d601f19601f820116820180604052508101906110c29190613102565b60015b611149573d80600081146110f5576040519150601f19603f3d011682016040523d82523d6000602084013e6110fa565b606091505b50600081510361114157836040517f64a0ae920000000000000000000000000000000000000000000000000000000081526004016111389190612728565b60405180910390fd5b805181602001fd5b63150b7a0260e01b7bffffffffffffffffffffffffffffffffffffffffffffffffffffffff1916817bffffffffffffffffffffffffffffffffffffffffffffffffffffffff1916146111d257836040517f64a0ae920000000000000000000000000000000000000000000000000000000081526004016111c99190612728565b60405180910390fd5b505b50505050565b60606111e582610bda565b506000600a6000848152602001908152602001600020805461120690612b62565b80601f016020809104026020016040519081016040528092919081815260200182805461123290612b62565b801561127f5780601f106112545761010080835404028352916020019161127f565b820191906000526020600020905b81548152906001019060200180831161126257829003601f168201915b505050505090506000611290611978565b905060008151036112a55781925050506112e8565b6000825111156112da5780826040516020016112c292919061312f565b604051602081830303815290604052925050506112e8565b6112e38461198f565b925050505b919050565b60007f780e9d63000000000000000000000000000000000000000000000000000000007bffffffffffffffffffffffffffffffffffffffffffffffffffffffff1916827bffffffffffffffffffffffffffffffffffffffffffffffffffffffff19161480611360575061135f826119f8565b5b9050919050565b60006002600083815260200190815260200160002060009054906101000a900473ffffffffffffffffffffffffffffffffffffffff169050919050565b80806113dd5750600073ffffffffffffffffffffffffffffffffffffffff168273ffffffffffffffffffffffffffffffffffffffff1614155b156115115760006113ed84610bda565b9050600073ffffffffffffffffffffffffffffffffffffffff168373ffffffffffffffffffffffffffffffffffffffff161415801561145857508273ffffffffffffffffffffffffffffffffffffffff168173ffffffffffffffffffffffffffffffffffffffff1614155b801561146b57506114698184610a5f565b155b156114ad57826040517fa9fbf51f0000000000000000000000000000000000000000000000000000000081526004016114a49190612728565b60405180910390fd5b811561150f57838573ffffffffffffffffffffffffffffffffffffffff168273ffffffffffffffffffffffffffffffffffffffff167f8c5be1e5ebec7d5bd14f71427d1e84f3dd0314c0f7b2291e5b200ac8c7c3b92560405160405180910390a45b505b836004600085815260200190815260200160002060006101000a81548173ffffffffffffffffffffffffffffffffffffffff021916908373ffffffffffffffffffffffffffffffffffffffff16021790555050505050565b600080611577858585611ada565b9050600073ffffffffffffffffffffffffffffffffffffffff168173ffffffffffffffffffffffffffffffffffffffff16036115bb576115b684611cf4565b6115fa565b8473ffffffffffffffffffffffffffffffffffffffff168173ffffffffffffffffffffffffffffffffffffffff16146115f9576115f88185611d3d565b5b5b600073ffffffffffffffffffffffffffffffffffffffff168573ffffffffffffffffffffffffffffffffffffffff160361163c5761163784611e9e565b61167b565b8473ffffffffffffffffffffffffffffffffffffffff168173ffffffffffffffffffffffffffffffffffffffff161461167a576116798585611f6f565b5b5b809150509392505050565b600080600090506000608084901c11156116a857608083901c92506010810190505b6000604084901c11156116c357604083901c92506008810190505b6000602084901c11156116de57602083901c92506004810190505b6000601084901c11156116f957601083901c92506002810190505b6000600884901c111561170d576001810190505b80915050919050565b606060008390506000600284600261172e9190613182565b61173891906131c4565b67ffffffffffffffff81111561175157611750612945565b5b6040519080825280601f01601f1916602001820160405280156117835781602001600182028036833780820191505090505b5090507f3000000000000000000000000000000000000000000000000000000000000000816000815181106117bb576117ba612bf3565b5b60200101907effffffffffffffffffffffffffffffffffffffffffffffffffffffffffffff1916908160001a9053507f78000000000000000000000000000000000000000000000000000000000000008160018151811061181f5761181e612bf3565b5b60200101907effffffffffffffffffffffffffffffffffffffffffffffffffffffffffffff1916908160001a9053506000600185600261185f9190613182565b61186991906131c4565b90505b6001811115611909577f3031323334353637383961626364656600000000000000000000000000000000600f8416601081106118ab576118aa612bf3565b5b1a60f81b8282815181106118c2576118c1612bf3565b5b60200101907effffffffffffffffffffffffffffffffffffffffffffffffffffffffffffff1916908160001a905350600483901c925080611902906131f8565b905061186c565b50600082146119515784846040517fe22e27eb000000000000000000000000000000000000000000000000000000008152600401611948929190613221565b60405180910390fd5b809250505092915050565b6119668383611ffa565b6119736000848484611023565b505050565b606060405180602001604052806000815250905090565b606061199a82610bda565b5060006119a5611978565b905060008151116119c557604051806020016040528060008152506119f0565b806119cf846120f3565b6040516020016119e092919061312f565b6040516020818303038152906040525b915050919050565b60007f80ac58cd000000000000000000000000000000000000000000000000000000007bffffffffffffffffffffffffffffffffffffffffffffffffffffffff1916827bffffffffffffffffffffffffffffffffffffffffffffffffffffffff19161480611ac357507f5b5e139f000000000000000000000000000000000000000000000000000000007bffffffffffffffffffffffffffffffffffffffffffffffffffffffff1916827bffffffffffffffffffffffffffffffffffffffffffffffffffffffff1916145b80611ad35750611ad2826121c1565b5b9050919050565b600080611ae684611367565b9050600073ffffffffffffffffffffffffffffffffffffffff168373ffffffffffffffffffffffffffffffffffffffff1614611b2857611b2781848661222b565b5b600073ffffffffffffffffffffffffffffffffffffffff168173ffffffffffffffffffffffffffffffffffffffff1614611bb957611b6a6000856000806113a4565b6001600360008373ffffffffffffffffffffffffffffffffffffffff1673ffffffffffffffffffffffffffffffffffffffff168152602001908152602001600020600082825403925050819055505b600073ffffffffffffffffffffffffffffffffffffffff168573ffffffffffffffffffffffffffffffffffffffff1614611c3c576001600360008773ffffffffffffffffffffffffffffffffffffffff1673ffffffffffffffffffffffffffffffffffffffff168152602001908152602001600020600082825401925050819055505b846002600086815260200190815260200160002060006101000a81548173ffffffffffffffffffffffffffffffffffffffff021916908373ffffffffffffffffffffffffffffffffffffffff160217905550838573ffffffffffffffffffffffffffffffffffffffff168273ffffffffffffffffffffffffffffffffffffffff167fddf252ad1be2c89b69c2b068fc378daa952ba7f163c4a11628f55a4df523b3ef60405160405180910390a4809150509392505050565b6008805490506009600083815260200190815260200160002081905550600881908060018154018082558091505060019003906000526020600020016000909190919091505550565b6000611d4883610814565b9050600060076000848152602001908152602001600020549050818114611e2d576000600660008673ffffffffffffffffffffffffffffffffffffffff1673ffffffffffffffffffffffffffffffffffffffff168152602001908152602001600020600084815260200190815260200160002054905080600660008773ffffffffffffffffffffffffffffffffffffffff1673ffffffffffffffffffffffffffffffffffffffff168152602001908152602001600020600084815260200190815260200160002081905550816007600083815260200190815260200160002081905550505b6007600084815260200190815260200160002060009055600660008573ffffffffffffffffffffffffffffffffffffffff1673ffffffffffffffffffffffffffffffffffffffff16815260200190815260200160002060008381526020019081526020016000206000905550505050565b60006001600880549050611eb2919061324a565b9050600060096000848152602001908152602001600020549050600060088381548110611ee257611ee1612bf3565b5b906000526020600020015490508060088381548110611f0457611f03612bf3565b5b906000526020600020018190555081600960008381526020019081526020016000208190555060096000858152602001908152602001600020600090556008805480611f5357611f5261327e565b5b6001900381819060005260206000200160009055905550505050565b60006001611f7c84610814565b611f86919061324a565b905081600660008573ffffffffffffffffffffffffffffffffffffffff1673ffffffffffffffffffffffffffffffffffffffff168152602001908152602001600020600083815260200190815260200160002081905550806007600084815260200190815260200160002081905550505050565b600073ffffffffffffffffffffffffffffffffffffffff168273ffffffffffffffffffffffffffffffffffffffff160361206c5760006040517f64a0ae920000000000000000000000000000000000000000000000000000000081526004016120639190612728565b60405180910390fd5b600061207a83836000610cb9565b9050600073ffffffffffffffffffffffffffffffffffffffff168173ffffffffffffffffffffffffffffffffffffffff16146120ee5760006040517f73c6ac6e0000000000000000000000000000000000000000000000000000000081526004016120e59190612728565b60405180910390fd5b505050565b606060006001612102846122ef565b01905060008167ffffffffffffffff81111561212157612120612945565b5b6040519080825280601f01601f1916602001820160405280156121535781602001600182028036833780820191505090505b509050600082602001820190505b6001156121b6578080600190039150507f3031323334353637383961626364656600000000000000000000000000000000600a86061a8153600a85816121aa576121a96132ad565b5b04945060008503612161575b819350505050919050565b60007f01ffc9a7000000000000000000000000000000000000000000000000000000007bffffffffffffffffffffffffffffffffffffffffffffffffffffffff1916827bffffffffffffffffffffffffffffffffffffffffffffffffffffffff1916149050919050565b612236838383612442565b6122ea57600073ffffffffffffffffffffffffffffffffffffffff168373ffffffffffffffffffffffffffffffffffffffff16036122ab57806040517f7e2732890000000000000000000000000000000000000000000000000000000081526004016122a291906127be565b60405180910390fd5b81816040517f177e802f0000000000000000000000000000000000000000000000000000000081526004016122e1929190612bca565b60405180910390fd5b505050565b600080600090507a184f03e93ff9f4daa797ed6e38ed64bf6a1f010000000000000000831061234d577a184f03e93ff9f4daa797ed6e38ed64bf6a1f0100000000000000008381612343576123426132ad565b5b0492506040810190505b6d04ee2d6d415b85acef8100000000831061238a576d04ee2d6d415b85acef810000000083816123805761237f6132ad565b5b0492506020810190505b662386f26fc1000083106123b957662386f26fc1000083816123af576123ae6132ad565b5b0492506010810190505b6305f5e10083106123e2576305f5e10083816123d8576123d76132ad565b5b0492506008810190505b61271083106124075761271083816123fd576123fc6132ad565b5b0492506004810190505b6064831061242a57606483816124205761241f6132ad565b5b0492506002810190505b600a8310612439576001810190505b80915050919050565b60008073ffffffffffffffffffffffffffffffffffffffff168373ffffffffffffffffffffffffffffffffffffffff16141580156124fa57508273ffffffffffffffffffffffffffffffffffffffff168473ffffffffffffffffffffffffffffffffffffffff1614806124bb57506124ba8484610a5f565b5b806124f957508273ffffffffffffffffffffffffffffffffffffffff166124e183610c62565b73ffffffffffffffffffffffffffffffffffffffff16145b5b90509392505050565b6000604051905090565b600080fd5b600080fd5b60007fffffffff0000000000000000000000000000000000000000000000000000000082169050919050565b61254c81612517565b811461255757600080fd5b50565b60008135905061256981612543565b92915050565b6000602082840312156125855761258461250d565b5b60006125938482850161255a565b91505092915050565b60008115159050919050565b6125b18161259c565b82525050565b60006020820190506125cc60008301846125a8565b92915050565b600081519050919050565b600082825260208201905092915050565b60005b8381101561260c5780820151818401526020810190506125f1565b60008484015250505050565b6000601f19601f8301169050919050565b6000612634826125d2565b61263e81856125dd565b935061264e8185602086016125ee565b61265781612618565b840191505092915050565b6000602082019050818103600083015261267c8184612629565b905092915050565b6000819050919050565b61269781612684565b81146126a257600080fd5b50565b6000813590506126b48161268e565b92915050565b6000602082840312156126d0576126cf61250d565b5b60006126de848285016126a5565b91505092915050565b600073ffffffffffffffffffffffffffffffffffffffff82169050919050565b6000612712826126e7565b9050919050565b61272281612707565b82525050565b600060208201905061273d6000830184612719565b92915050565b61274c81612707565b811461275757600080fd5b50565b60008135905061276981612743565b92915050565b600080604083850312156127865761278561250d565b5b60006127948582860161275a565b92505060206127a5858286016126a5565b9150509250929050565b6127b881612684565b82525050565b60006020820190506127d360008301846127af565b92915050565b6000806000606084860312156127f2576127f161250d565b5b60006128008682870161275a565b93505060206128118682870161275a565b9250506040612822868287016126a5565b9150509250925092565b6000819050919050565b61283f8161282c565b811461284a57600080fd5b50565b60008135905061285c81612836565b92915050565b600080604083850312156128795761287861250d565b5b6000612887858286016126a5565b92505060206128988582860161284d565b9150509250929050565b6000602082840312156128b8576128b761250d565b5b60006128c68482850161275a565b91505092915050565b6128d88161259c565b81146128e357600080fd5b50565b6000813590506128f5816128cf565b92915050565b600080604083850312156129125761291161250d565b5b60006129208582860161275a565b9250506020612931858286016128e6565b9150509250929050565b600080fd5b600080fd5b7f4e487b7100000000000000000000000000000000000000000000000000000000600052604160045260246000fd5b61297d82612618565b810181811067ffffffffffffffff8211171561299c5761299b612945565b5b80604052505050565b60006129af612503565b90506129bb8282612974565b919050565b600067ffffffffffffffff8211156129db576129da612945565b5b6129e482612618565b9050602081019050919050565b82818337600083830152505050565b6000612a13612a0e846129c0565b6129a5565b905082815260208101848484011115612a2f57612a2e612940565b5b612a3a8482856129f1565b509392505050565b600082601f830112612a5757612a5661293b565b5b8135612a67848260208601612a00565b91505092915050565b60008060008060808587031215612a8a57612a8961250d565b5b6000612a988782880161275a565b9450506020612aa98782880161275a565b9350506040612aba878288016126a5565b925050606085013567ffffffffffffffff811115612adb57612ada612512565b5b612ae787828801612a42565b91505092959194509250565b60008060408385031215612b0a57612b0961250d565b5b6000612b188582860161275a565b9250506020612b298582860161275a565b9150509250929050565b7f4e487b7100000000000000000000000000000000000000000000000000000000600052602260045260246000fd5b60006002820490506001821680612b7a57607f821691505b602082108103612b8d57612b8c612b33565b5b50919050565b6000606082019050612ba86000830186612719565b612bb560208301856127af565b612bc26040830184612719565b949350505050565b6000604082019050612bdf6000830185612719565b612bec60208301846127af565b9392505050565b7f4e487b7100000000000000000000000000000000000000000000000000000000600052603260045260246000fd5b612c2b8161282c565b82525050565b6000602082019050612c466000830184612c22565b92915050565b7f496e76616c69642070726f6f6600000000000000000000000000000000000000600082015250565b6000612c82600d836125dd565b9150612c8d82612c4c565b602082019050919050565b60006020820190508181036000830152612cb181612c75565b9050919050565b600081905092915050565b7f50726f7065727479206f66205461672077697468204365727449643a20000000600082015250565b6000612cf9601d83612cb8565b9150612d0482612cc3565b601d82019050919050565b6000612d1a826125d2565b612d248185612cb8565b9350612d348185602086016125ee565b80840191505092915050565b6000612d4b82612cec565b9150612d578284612d0f565b915081905092915050565b7f50726f6f6620616c726561647920736574000000000000000000000000000000600082015250565b6000612d986011836125dd565b9150612da382612d62565b602082019050919050565b60006020820190508181036000830152612dc781612d8b565b9050919050565b60008190508160005260206000209050919050565b60006020601f8301049050919050565b600082821b905092915050565b600060088302612e307fffffffffffffffffffffffffffffffffffffffffffffffffffffffffffffffff82612df3565b612e3a8683612df3565b95508019841693508086168417925050509392505050565b6000819050919050565b6000612e77612e72612e6d84612684565b612e52565b612684565b9050919050565b6000819050919050565b612e9183612e5c565b612ea5612e9d82612e7e565b848454612e00565b825550505050565b600090565b612eba612ead565b612ec5818484612e88565b505050565b5b81811015612ee957612ede600082612eb2565b600181019050612ecb565b5050565b601f821115612f2e57612eff81612dce565b612f0884612de3565b81016020851015612f17578190505b612f2b612f2385612de3565b830182612eca565b50505b505050565b600082821c905092915050565b6000612f5160001984600802612f33565b1980831691505092915050565b6000612f6a8383612f40565b9150826002028217905092915050565b612f83826125d2565b67ffffffffffffffff811115612f9c57612f9b612945565b5b612fa68254612b62565b612fb1828285612eed565b600060209050601f831160018114612fe45760008415612fd2578287015190505b612fdc8582612f5e565b865550613044565b601f198416612ff286612dce565b60005b8281101561301a57848901518255600182019150602085019450602081019050612ff5565b868310156130375784890151613033601f891682612f40565b8355505b6001600288020188555050505b505050505050565b600081519050919050565b600082825260208201905092915050565b60006130738261304c565b61307d8185613057565b935061308d8185602086016125ee565b61309681612618565b840191505092915050565b60006080820190506130b66000830187612719565b6130c36020830186612719565b6130d060408301856127af565b81810360608301526130e28184613068565b905095945050505050565b6000815190506130fc81612543565b92915050565b6000602082840312156131185761311761250d565b5b6000613126848285016130ed565b91505092915050565b600061313b8285612d0f565b91506131478284612d0f565b91508190509392505050565b7f4e487b7100000000000000000000000000000000000000000000000000000000600052601160045260246000fd5b600061318d82612684565b915061319883612684565b92508282026131a681612684565b915082820484148315176131bd576131bc613153565b5b5092915050565b60006131cf82612684565b91506131da83612684565b92508282019050808211156131f2576131f1613153565b5b92915050565b600061320382612684565b91506000820361321657613215613153565b5b600182039050919050565b600060408201905061323660008301856127af565b61324360208301846127af565b9392505050565b600061325582612684565b915061326083612684565b925082820390508181111561327857613277613153565b5b92915050565b7f4e487b7100000000000000000000000000000000000000000000000000000000600052603160045260246000fd5b7f4e487b7100000000000000000000000000000000000000000000000000000000600052601260045260246000fdfea264697066735822122023601af69625f93f0b3958ae4a59cc0e1631fb40560b1d0fb0f1232a6d4e339864736f6c63430008180033",
  "linkReferences": {},
  "deployedLinkReferences": {}
}