{
  "_format": "hh-sol-artifact-1",
  "contractName": "RadicaTag",
  "sourceName": "contracts/RadicaTag.sol",
  "abi": [
    {
      "inputs": [],
      "stateMutability": "nonpayable",
      "type": "constructor"
    },
    {
      "inputs": [
        {
          "internalType": "address",
          "name": "owner",
          "type": "address"
        }
      ],
      "name": "OwnableInvalidOwner",
      "type": "error"
    },
    {
      "inputs": [
        {
          "internalType": "address",
          "name": "account",
          "type": "address"
        }
      ],
      "name": "OwnableUnauthorizedAccount",
      "type": "error"
    },
    {
      "anonymous": false,
      "inputs": [
        {
          "indexed": true,
          "internalType": "address",
          "name": "previousOwner",
          "type": "address"
        },
        {
          "indexed": true,
          "internalType": "address",
          "name": "newOwner",
          "type": "address"
        }
      ],
      "name": "OwnershipTransferred",
      "type": "event"
    },
    {
      "inputs": [
        {
          "internalType": "address",
          "name": "tagAddr",
          "type": "address"
        },
        {
          "components": [
            {
              "internalType": "string",
              "name": "serialNumber",
              "type": "string"
            },
            {
              "internalType": "string",
              "name": "name",
              "type": "string"
            },
            {
              "internalType": "string",
              "name": "description",
              "type": "string"
            },
            {
              "internalType": "string",
              "name": "image",
              "type": "string"
            },
            {
              "internalType": "string",
              "name": "manufacturer",
              "type": "string"
            },
            {
              "internalType": "string",
              "name": "externalUrl",
              "type": "string"
            }
          ],
          "internalType": "struct Metadata",
          "name": "metadata",
          "type": "tuple"
        },
        {
          "internalType": "bytes32",
          "name": "proofHash",
          "type": "bytes32"
        }
      ],
      "name": "createTag",
      "outputs": [],
      "stateMutability": "nonpayable",
      "type": "function"
    },
    {
      "inputs": [
        {
          "internalType": "address",
          "name": "tagAddr",
          "type": "address"
        },
        {
          "components": [
            {
              "internalType": "string",
              "name": "serialNumber",
              "type": "string"
            },
            {
              "internalType": "string",
              "name": "name",
              "type": "string"
            },
            {
              "internalType": "string",
              "name": "description",
              "type": "string"
            },
            {
              "internalType": "string",
              "name": "image",
              "type": "string"
            },
            {
              "internalType": "string",
              "name": "manufacturer",
              "type": "string"
            },
            {
              "internalType": "string",
              "name": "externalUrl",
              "type": "string"
            }
          ],
          "internalType": "struct Metadata",
          "name": "metadata",
          "type": "tuple"
        },
        {
          "components": [
            {
              "internalType": "string",
              "name": "batchId",
              "type": "string"
            },
            {
              "internalType": "string",
              "name": "supplierChainHash",
              "type": "string"
            }
          ],
          "internalType": "struct TracebilityMetadata",
          "name": "tracebilityMetadata",
          "type": "tuple"
        },
        {
          "internalType": "bytes32",
          "name": "proofHash",
          "type": "bytes32"
        }
      ],
      "name": "createTag",
      "outputs": [],
      "stateMutability": "nonpayable",
      "type": "function"
    },
    {
      "inputs": [],
      "name": "owner",
      "outputs": [
        {
          "internalType": "address",
          "name": "",
          "type": "address"
        }
      ],
      "stateMutability": "view",
      "type": "function"
    },
    {
      "inputs": [],
      "name": "radicaPropertyAddr",
      "outputs": [
        {
          "internalType": "address",
          "name": "",
          "type": "address"
        }
      ],
      "stateMutability": "view",
      "type": "function"
    },
    {
      "inputs": [],
      "name": "renounceOwnership",
      "outputs": [],
      "stateMutability": "nonpayable",
      "type": "function"
    },
    {
      "inputs": [
        {
          "internalType": "address",
          "name": "_radicaPropertyAddr",
          "type": "address"
        }
      ],
      "name": "setRadicaPropertyAddr",
      "outputs": [],
      "stateMutability": "nonpayable",
      "type": "function"
    },
    {
      "inputs": [
        {
          "internalType": "address",
          "name": "",
          "type": "address"
        }
      ],
      "name": "tagAddrToCert",
      "outputs": [
        {
          "internalType": "uint256",
          "name": "id",
          "type": "uint256"
        },
        {
          "components": [
            {
              "internalType": "string",
              "name": "serialNumber",
              "type": "string"
            },
            {
              "internalType": "string",
              "name": "name",
              "type": "string"
            },
            {
              "internalType": "string",
              "name": "description",
              "type": "string"
            },
            {
              "internalType": "string",
              "name": "image",
              "type": "string"
            },
            {
              "internalType": "string",
              "name": "manufacturer",
              "type": "string"
            },
            {
              "internalType": "string",
              "name": "externalUrl",
              "type": "string"
            }
          ],
          "internalType": "struct Metadata",
          "name": "metadata",
          "type": "tuple"
        },
        {
          "components": [
            {
              "internalType": "string",
              "name": "batchId",
              "type": "string"
            },
            {
              "internalType": "string",
              "name": "supplierChainHash",
              "type": "string"
            }
          ],
          "internalType": "struct TracebilityMetadata",
          "name": "tracebilityMetadata",
          "type": "tuple"
        }
      ],
      "stateMutability": "view",
      "type": "function"
    },
    {
      "inputs": [
        {
          "internalType": "address",
          "name": "newOwner",
          "type": "address"
        }
      ],
      "name": "transferOwnership",
      "outputs": [],
      "stateMutability": "nonpayable",
      "type": "function"
    }
  ],
  "bytecode": "0x60806040523480156200001157600080fd5b5033600073ffffffffffffffffffffffffffffffffffffffff168173ffffffffffffffffffffffffffffffffffffffff1603620000885760006040517f1e4fbdf70000000000000000000000000000000000000000000000000000000081526004016200007f9190620001a9565b60405180910390fd5b6200009981620000a060201b60201c565b50620001c6565b60008060009054906101000a900473ffffffffffffffffffffffffffffffffffffffff169050816000806101000a81548173ffffffffffffffffffffffffffffffffffffffff021916908373ffffffffffffffffffffffffffffffffffffffff1602179055508173ffffffffffffffffffffffffffffffffffffffff168173ffffffffffffffffffffffffffffffffffffffff167f8be0079c531659141344cd1fd0a4f28419497f9722a3daafe3b4186f6b6457e060405160405180910390a35050565b600073ffffffffffffffffffffffffffffffffffffffff82169050919050565b6000620001918262000164565b9050919050565b620001a38162000184565b82525050565b6000602082019050620001c0600083018462000198565b92915050565b6119f580620001d66000396000f3fe608060405234801561001057600080fd5b50600436106100885760003560e01c8063c1efa60b1161005b578063c1efa60b146100ef578063e528a1f714610121578063f2fde38b1461013d578063ffcdd30a1461015957610088565b8063715018a61461008d5780638da5cb5b14610097578063985427e0146100b5578063b3c06e91146100d3575b600080fd5b610095610175565b005b61009f610189565b6040516100ac9190610dab565b60405180910390f35b6100bd6101b2565b6040516100ca9190610dab565b60405180910390f35b6100ed60048036038101906100e89190610e06565b6101d8565b005b61010960048036038101906101049190610e06565b6102ad565b60405161011893929190610fcc565b60405180910390f35b61013b600480360381019061013691906112ce565b61077b565b005b61015760048036038101906101529190610e06565b6107cc565b005b610173600480360381019061016e91906113c5565b610852565b005b61017d610bc5565b6101876000610c4c565b565b60008060009054906101000a900473ffffffffffffffffffffffffffffffffffffffff16905090565b600160009054906101000a900473ffffffffffffffffffffffffffffffffffffffff1681565b600073ffffffffffffffffffffffffffffffffffffffff16600160009054906101000a900473ffffffffffffffffffffffffffffffffffffffff1673ffffffffffffffffffffffffffffffffffffffff1614610269576040517f08c379a0000000000000000000000000000000000000000000000000000000008152600401610260906114e7565b60405180910390fd5b80600160006101000a81548173ffffffffffffffffffffffffffffffffffffffff021916908373ffffffffffffffffffffffffffffffffffffffff16021790555050565b6003602052806000526040600020600091509050806000015490806001016040518060c00160405290816000820180546102e690611536565b80601f016020809104026020016040519081016040528092919081815260200182805461031290611536565b801561035f5780601f106103345761010080835404028352916020019161035f565b820191906000526020600020905b81548152906001019060200180831161034257829003601f168201915b5050505050815260200160018201805461037890611536565b80601f01602080910402602001604051908101604052809291908181526020018280546103a490611536565b80156103f15780601f106103c6576101008083540402835291602001916103f1565b820191906000526020600020905b8154815290600101906020018083116103d457829003601f168201915b5050505050815260200160028201805461040a90611536565b80601f016020809104026020016040519081016040528092919081815260200182805461043690611536565b80156104835780601f1061045857610100808354040283529160200191610483565b820191906000526020600020905b81548152906001019060200180831161046657829003601f168201915b5050505050815260200160038201805461049c90611536565b80601f01602080910402602001604051908101604052809291908181526020018280546104c890611536565b80156105155780601f106104ea57610100808354040283529160200191610515565b820191906000526020600020905b8154815290600101906020018083116104f857829003601f168201915b5050505050815260200160048201805461052e90611536565b80601f016020809104026020016040519081016040528092919081815260200182805461055a90611536565b80156105a75780601f1061057c576101008083540402835291602001916105a7565b820191906000526020600020905b81548152906001019060200180831161058a57829003601f168201915b505050505081526020016005820180546105c090611536565b80601f01602080910402602001604051908101604052809291908181526020018280546105ec90611536565b80156106395780601f1061060e57610100808354040283529160200191610639565b820191906000526020600020905b81548152906001019060200180831161061c57829003601f168201915b505050505081525050908060070160405180604001604052908160008201805461066290611536565b80601f016020809104026020016040519081016040528092919081815260200182805461068e90611536565b80156106db5780601f106106b0576101008083540402835291602001916106db565b820191906000526020600020905b8154815290600101906020018083116106be57829003601f168201915b505050505081526020016001820180546106f490611536565b80601f016020809104026020016040519081016040528092919081815260200182805461072090611536565b801561076d5780601f106107425761010080835404028352916020019161076d565b820191906000526020600020905b81548152906001019060200180831161075057829003601f168201915b505050505081525050905083565b610783610bc5565b600060405180604001604052806040518060200160405280600081525081526020016040518060200160405280600081525081525090506107c684848385610852565b50505050565b6107d4610bc5565b600073ffffffffffffffffffffffffffffffffffffffff168173ffffffffffffffffffffffffffffffffffffffff16036108465760006040517f1e4fbdf700000000000000000000000000000000000000000000000000000000815260040161083d9190610dab565b60405180910390fd5b61084f81610c4c565b50565b61085a610bc5565b6000801b810361089f576040517f08c379a0000000000000000000000000000000000000000000000000000000008152600401610896906115b3565b60405180910390fd5b6000600360008673ffffffffffffffffffffffffffffffffffffffff1673ffffffffffffffffffffffffffffffffffffffff1681526020019081526020016000206000015414610924576040517f08c379a000000000000000000000000000000000000000000000000000000000815260040161091b9061161f565b60405180910390fd5b60006109303386610d10565b9050604051806060016040528082815260200185815260200184815250600360008773ffffffffffffffffffffffffffffffffffffffff1673ffffffffffffffffffffffffffffffffffffffff1681526020019081526020016000206000820151816000015560208201518160010160008201518160000190816109b491906117eb565b5060208201518160010190816109ca91906117eb565b5060408201518160020190816109e091906117eb565b5060608201518160030190816109f691906117eb565b506080820151816004019081610a0c91906117eb565b5060a0820151816005019081610a2291906117eb565b5050506040820151816007016000820151816000019081610a4391906117eb565b506020820151816001019081610a5991906117eb565b5050509050506000600160009054906101000a900473ffffffffffffffffffffffffffffffffffffffff1673ffffffffffffffffffffffffffffffffffffffff168284604051602401610aad9291906118cc565b6040516020818303038152906040527fc0c98d6f000000000000000000000000000000000000000000000000000000007bffffffffffffffffffffffffffffffffffffffffffffffffffffffff19166020820180517bffffffffffffffffffffffffffffffffffffffffffffffffffffffff8381831617835250505050604051610b37919061193c565b6000604051808303816000865af19150503d8060008114610b74576040519150601f19603f3d011682016040523d82523d6000602084013e610b79565b606091505b5050905080610bbd576040517f08c379a0000000000000000000000000000000000000000000000000000000008152600401610bb49061199f565b60405180910390fd5b505050505050565b610bcd610d62565b73ffffffffffffffffffffffffffffffffffffffff16610beb610189565b73ffffffffffffffffffffffffffffffffffffffff1614610c4a57610c0e610d62565b6040517f118cdaa7000000000000000000000000000000000000000000000000000000008152600401610c419190610dab565b60405180910390fd5b565b60008060009054906101000a900473ffffffffffffffffffffffffffffffffffffffff169050816000806101000a81548173ffffffffffffffffffffffffffffffffffffffff021916908373ffffffffffffffffffffffffffffffffffffffff1602179055508173ffffffffffffffffffffffffffffffffffffffff168173ffffffffffffffffffffffffffffffffffffffff167f8be0079c531659141344cd1fd0a4f28419497f9722a3daafe3b4186f6b6457e060405160405180910390a35050565b6000808373ffffffffffffffffffffffffffffffffffffffff16905060008373ffffffffffffffffffffffffffffffffffffffff1690506000604083901c90508160a082901b17935050505092915050565b600033905090565b600073ffffffffffffffffffffffffffffffffffffffff82169050919050565b6000610d9582610d6a565b9050919050565b610da581610d8a565b82525050565b6000602082019050610dc06000830184610d9c565b92915050565b6000604051905090565b600080fd5b600080fd5b610de381610d8a565b8114610dee57600080fd5b50565b600081359050610e0081610dda565b92915050565b600060208284031215610e1c57610e1b610dd0565b5b6000610e2a84828501610df1565b91505092915050565b6000819050919050565b610e4681610e33565b82525050565b600081519050919050565b600082825260208201905092915050565b60005b83811015610e86578082015181840152602081019050610e6b565b60008484015250505050565b6000601f19601f8301169050919050565b6000610eae82610e4c565b610eb88185610e57565b9350610ec8818560208601610e68565b610ed181610e92565b840191505092915050565b600060c0830160008301518482036000860152610ef98282610ea3565b91505060208301518482036020860152610f138282610ea3565b91505060408301518482036040860152610f2d8282610ea3565b91505060608301518482036060860152610f478282610ea3565b91505060808301518482036080860152610f618282610ea3565b91505060a083015184820360a0860152610f7b8282610ea3565b9150508091505092915050565b60006040830160008301518482036000860152610fa58282610ea3565b91505060208301518482036020860152610fbf8282610ea3565b9150508091505092915050565b6000606082019050610fe16000830186610e3d565b8181036020830152610ff38185610edc565b905081810360408301526110078184610f88565b9050949350505050565b600080fd5b7f4e487b7100000000000000000000000000000000000000000000000000000000600052604160045260246000fd5b61104e82610e92565b810181811067ffffffffffffffff8211171561106d5761106c611016565b5b80604052505050565b6000611080610dc6565b905061108c8282611045565b919050565b600080fd5b600080fd5b600080fd5b600067ffffffffffffffff8211156110bb576110ba611016565b5b6110c482610e92565b9050602081019050919050565b82818337600083830152505050565b60006110f36110ee846110a0565b611076565b90508281526020810184848401111561110f5761110e61109b565b5b61111a8482856110d1565b509392505050565b600082601f83011261113757611136611096565b5b81356111478482602086016110e0565b91505092915050565b600060c0828403121561116657611165611011565b5b61117060c0611076565b9050600082013567ffffffffffffffff8111156111905761118f611091565b5b61119c84828501611122565b600083015250602082013567ffffffffffffffff8111156111c0576111bf611091565b5b6111cc84828501611122565b602083015250604082013567ffffffffffffffff8111156111f0576111ef611091565b5b6111fc84828501611122565b604083015250606082013567ffffffffffffffff8111156112205761121f611091565b5b61122c84828501611122565b606083015250608082013567ffffffffffffffff8111156112505761124f611091565b5b61125c84828501611122565b60808301525060a082013567ffffffffffffffff8111156112805761127f611091565b5b61128c84828501611122565b60a08301525092915050565b6000819050919050565b6112ab81611298565b81146112b657600080fd5b50565b6000813590506112c8816112a2565b92915050565b6000806000606084860312156112e7576112e6610dd0565b5b60006112f586828701610df1565b935050602084013567ffffffffffffffff81111561131657611315610dd5565b5b61132286828701611150565b9250506040611333868287016112b9565b9150509250925092565b60006040828403121561135357611352611011565b5b61135d6040611076565b9050600082013567ffffffffffffffff81111561137d5761137c611091565b5b61138984828501611122565b600083015250602082013567ffffffffffffffff8111156113ad576113ac611091565b5b6113b984828501611122565b60208301525092915050565b600080600080608085870312156113df576113de610dd0565b5b60006113ed87828801610df1565b945050602085013567ffffffffffffffff81111561140e5761140d610dd5565b5b61141a87828801611150565b935050604085013567ffffffffffffffff81111561143b5761143a610dd5565b5b6114478782880161133d565b9250506060611458878288016112b9565b91505092959194509250565b600082825260208201905092915050565b7f52616469636150726f706572747920616464726573732063616e6e6f7420626560008201527f206d6f6469666965640000000000000000000000000000000000000000000000602082015250565b60006114d1602983611464565b91506114dc82611475565b604082019050919050565b60006020820190508181036000830152611500816114c4565b9050919050565b7f4e487b7100000000000000000000000000000000000000000000000000000000600052602260045260246000fd5b6000600282049050600182168061154e57607f821691505b60208210810361156157611560611507565b5b50919050565b7f50726f6f6620686173682063616e6e6f74206265207a65726f00000000000000600082015250565b600061159d601983611464565b91506115a882611567565b602082019050919050565b600060208201905081810360008301526115cc81611590565b9050919050565b7f54616720616c726561647920696e207573650000000000000000000000000000600082015250565b6000611609601283611464565b9150611614826115d3565b602082019050919050565b60006020820190508181036000830152611638816115fc565b9050919050565b60008190508160005260206000209050919050565b60006020601f8301049050919050565b600082821b905092915050565b6000600883026116a17fffffffffffffffffffffffffffffffffffffffffffffffffffffffffffffffff82611664565b6116ab8683611664565b95508019841693508086168417925050509392505050565b6000819050919050565b60006116e86116e36116de84610e33565b6116c3565b610e33565b9050919050565b6000819050919050565b611702836116cd565b61171661170e826116ef565b848454611671565b825550505050565b600090565b61172b61171e565b6117368184846116f9565b505050565b5b8181101561175a5761174f600082611723565b60018101905061173c565b5050565b601f82111561179f576117708161163f565b61177984611654565b81016020851015611788578190505b61179c61179485611654565b83018261173b565b50505b505050565b600082821c905092915050565b60006117c2600019846008026117a4565b1980831691505092915050565b60006117db83836117b1565b9150826002028217905092915050565b6117f482610e4c565b67ffffffffffffffff81111561180d5761180c611016565b5b6118178254611536565b61182282828561175e565b600060209050601f8311600181146118555760008415611843578287015190505b61184d85826117cf565b8655506118b5565b601f1984166118638661163f565b60005b8281101561188b57848901518255600182019150602085019450602081019050611866565b868310156118a857848901516118a4601f8916826117b1565b8355505b6001600288020188555050505b505050505050565b6118c681611298565b82525050565b60006040820190506118e16000830185610e3d565b6118ee60208301846118bd565b9392505050565b600081519050919050565b600081905092915050565b6000611916826118f5565b6119208185611900565b9350611930818560208601610e68565b80840191505092915050565b6000611948828461190b565b915081905092915050565b7f43616c6c20746f2073657450726f6f66206661696c6564000000000000000000600082015250565b6000611989601783611464565b915061199482611953565b602082019050919050565b600060208201905081810360008301526119b88161197c565b905091905056fea26469706673582212209faacb063eb5f9c6c090d4401d1c3cb0ae0ec6905664e979ed19ee58e9bdce5e64736f6c63430008180033",
  "linkReferences": {},
  "deployedLinkReferences": {}
}