{
  "_format": "hh-sol-artifact-1",
  "contractName": "RadicaTag",
  "sourceName": "contracts/RadicaTag.sol",
  "abi": [
    {
      "inputs": [],
      "stateMutability": "nonpayable",
      "type": "constructor"
    },
    {
      "inputs": [
        {
          "internalType": "address",
          "name": "tagAddr",
          "type": "address"
        },
        {
          "components": [
            {
              "internalType": "string",
              "name": "serialNumber",
              "type": "string"
            },
            {
              "internalType": "string",
              "name": "name",
              "type": "string"
            },
            {
              "internalType": "string",
              "name": "description",
              "type": "string"
            },
            {
              "internalType": "string",
              "name": "image",
              "type": "string"
            },
            {
              "internalType": "string",
              "name": "manufacturer",
              "type": "string"
            },
            {
              "internalType": "string",
              "name": "externalUrl",
              "type": "string"
            }
          ],
          "internalType": "struct Metadata",
          "name": "metadata",
          "type": "tuple"
        },
        {
          "internalType": "bytes32",
          "name": "proofHash",
          "type": "bytes32"
        }
      ],
      "name": "createTag",
      "outputs": [],
      "stateMutability": "nonpayable",
      "type": "function"
    },
    {
      "inputs": [
        {
          "internalType": "address",
          "name": "tagAddr",
          "type": "address"
        },
        {
          "components": [
            {
              "internalType": "string",
              "name": "serialNumber",
              "type": "string"
            },
            {
              "internalType": "string",
              "name": "name",
              "type": "string"
            },
            {
              "internalType": "string",
              "name": "description",
              "type": "string"
            },
            {
              "internalType": "string",
              "name": "image",
              "type": "string"
            },
            {
              "internalType": "string",
              "name": "manufacturer",
              "type": "string"
            },
            {
              "internalType": "string",
              "name": "externalUrl",
              "type": "string"
            }
          ],
          "internalType": "struct Metadata",
          "name": "metadata",
          "type": "tuple"
        },
        {
          "components": [
            {
              "internalType": "string",
              "name": "batchId",
              "type": "string"
            },
            {
              "internalType": "string",
              "name": "supplierChainHash",
              "type": "string"
            }
          ],
          "internalType": "struct TracebilityMetadata",
          "name": "tracebilityMetadata",
          "type": "tuple"
        },
        {
          "internalType": "bytes32",
          "name": "proofHash",
          "type": "bytes32"
        }
      ],
      "name": "createTag",
      "outputs": [],
      "stateMutability": "nonpayable",
      "type": "function"
    },
    {
      "inputs": [],
      "name": "radicaPropertyAddr",
      "outputs": [
        {
          "internalType": "address",
          "name": "",
          "type": "address"
        }
      ],
      "stateMutability": "view",
      "type": "function"
    },
    {
      "inputs": [
        {
          "internalType": "address",
          "name": "_radicaPropertyAddr",
          "type": "address"
        }
      ],
      "name": "setRadicaPropertyAddr",
      "outputs": [],
      "stateMutability": "nonpayable",
      "type": "function"
    },
    {
      "inputs": [
        {
          "internalType": "address",
          "name": "",
          "type": "address"
        }
      ],
      "name": "tagAddrToCert",
      "outputs": [
        {
          "internalType": "uint256",
          "name": "id",
          "type": "uint256"
        },
        {
          "components": [
            {
              "internalType": "string",
              "name": "serialNumber",
              "type": "string"
            },
            {
              "internalType": "string",
              "name": "name",
              "type": "string"
            },
            {
              "internalType": "string",
              "name": "description",
              "type": "string"
            },
            {
              "internalType": "string",
              "name": "image",
              "type": "string"
            },
            {
              "internalType": "string",
              "name": "manufacturer",
              "type": "string"
            },
            {
              "internalType": "string",
              "name": "externalUrl",
              "type": "string"
            }
          ],
          "internalType": "struct Metadata",
          "name": "metadata",
          "type": "tuple"
        },
        {
          "components": [
            {
              "internalType": "string",
              "name": "batchId",
              "type": "string"
            },
            {
              "internalType": "string",
              "name": "supplierChainHash",
              "type": "string"
            }
          ],
          "internalType": "struct TracebilityMetadata",
          "name": "tracebilityMetadata",
          "type": "tuple"
        }
      ],
      "stateMutability": "view",
      "type": "function"
    }
  ],
  "bytecode": "0x608060405234801561001057600080fd5b50611754806100206000396000f3fe608060405234801561001057600080fd5b50600436106100575760003560e01c8063985427e01461005c578063b3c06e911461007a578063c1efa60b14610096578063e528a1f7146100c8578063ffcdd30a146100e4575b600080fd5b610064610100565b6040516100719190610b0a565b60405180910390f35b610094600480360381019061008f9190610b65565b610124565b005b6100b060048036038101906100ab9190610b65565b6101f6565b6040516100bf93929190610d2b565b60405180910390f35b6100e260048036038101906100dd919061102d565b6106c4565b005b6100fe60048036038101906100f99190611124565b61070d565b005b60008054906101000a900473ffffffffffffffffffffffffffffffffffffffff1681565b600073ffffffffffffffffffffffffffffffffffffffff1660008054906101000a900473ffffffffffffffffffffffffffffffffffffffff1673ffffffffffffffffffffffffffffffffffffffff16146101b3576040517f08c379a00000000000000000000000000000000000000000000000000000000081526004016101aa90611246565b60405180910390fd5b806000806101000a81548173ffffffffffffffffffffffffffffffffffffffff021916908373ffffffffffffffffffffffffffffffffffffffff16021790555050565b6002602052806000526040600020600091509050806000015490806001016040518060c001604052908160008201805461022f90611295565b80601f016020809104026020016040519081016040528092919081815260200182805461025b90611295565b80156102a85780601f1061027d576101008083540402835291602001916102a8565b820191906000526020600020905b81548152906001019060200180831161028b57829003601f168201915b505050505081526020016001820180546102c190611295565b80601f01602080910402602001604051908101604052809291908181526020018280546102ed90611295565b801561033a5780601f1061030f5761010080835404028352916020019161033a565b820191906000526020600020905b81548152906001019060200180831161031d57829003601f168201915b5050505050815260200160028201805461035390611295565b80601f016020809104026020016040519081016040528092919081815260200182805461037f90611295565b80156103cc5780601f106103a1576101008083540402835291602001916103cc565b820191906000526020600020905b8154815290600101906020018083116103af57829003601f168201915b505050505081526020016003820180546103e590611295565b80601f016020809104026020016040519081016040528092919081815260200182805461041190611295565b801561045e5780601f106104335761010080835404028352916020019161045e565b820191906000526020600020905b81548152906001019060200180831161044157829003601f168201915b5050505050815260200160048201805461047790611295565b80601f01602080910402602001604051908101604052809291908181526020018280546104a390611295565b80156104f05780601f106104c5576101008083540402835291602001916104f0565b820191906000526020600020905b8154815290600101906020018083116104d357829003601f168201915b5050505050815260200160058201805461050990611295565b80601f016020809104026020016040519081016040528092919081815260200182805461053590611295565b80156105825780601f1061055757610100808354040283529160200191610582565b820191906000526020600020905b81548152906001019060200180831161056557829003601f168201915b50505050508152505090806007016040518060400160405290816000820180546105ab90611295565b80601f01602080910402602001604051908101604052809291908181526020018280546105d790611295565b80156106245780601f106105f957610100808354040283529160200191610624565b820191906000526020600020905b81548152906001019060200180831161060757829003601f168201915b5050505050815260200160018201805461063d90611295565b80601f016020809104026020016040519081016040528092919081815260200182805461066990611295565b80156106b65780601f1061068b576101008083540402835291602001916106b6565b820191906000526020600020905b81548152906001019060200180831161069957829003601f168201915b505050505081525050905083565b600060405180604001604052806040518060200160405280600081525081526020016040518060200160405280600081525081525090506107078484838561070d565b50505050565b6000801b8103610752576040517f08c379a000000000000000000000000000000000000000000000000000000000815260040161074990611312565b60405180910390fd5b6000600260008673ffffffffffffffffffffffffffffffffffffffff1673ffffffffffffffffffffffffffffffffffffffff16815260200190815260200160002060000154146107d7576040517f08c379a00000000000000000000000000000000000000000000000000000000081526004016107ce9061137e565b60405180910390fd5b60006107e33386610a77565b9050604051806060016040528082815260200185815260200184815250600260008773ffffffffffffffffffffffffffffffffffffffff1673ffffffffffffffffffffffffffffffffffffffff168152602001908152602001600020600082015181600001556020820151816001016000820151816000019081610867919061154a565b50602082015181600101908161087d919061154a565b506040820151816002019081610893919061154a565b5060608201518160030190816108a9919061154a565b5060808201518160040190816108bf919061154a565b5060a08201518160050190816108d5919061154a565b50505060408201518160070160008201518160000190816108f6919061154a565b50602082015181600101908161090c919061154a565b50505090505060008060009054906101000a900473ffffffffffffffffffffffffffffffffffffffff1673ffffffffffffffffffffffffffffffffffffffff16828460405160240161095f92919061162b565b6040516020818303038152906040527fc0c98d6f000000000000000000000000000000000000000000000000000000007bffffffffffffffffffffffffffffffffffffffffffffffffffffffff19166020820180517bffffffffffffffffffffffffffffffffffffffffffffffffffffffff83818316178352505050506040516109e9919061169b565b6000604051808303816000865af19150503d8060008114610a26576040519150601f19603f3d011682016040523d82523d6000602084013e610a2b565b606091505b5050905080610a6f576040517f08c379a0000000000000000000000000000000000000000000000000000000008152600401610a66906116fe565b60405180910390fd5b505050505050565b6000808373ffffffffffffffffffffffffffffffffffffffff16905060008373ffffffffffffffffffffffffffffffffffffffff1690506000604083901c90508160a082901b17935050505092915050565b600073ffffffffffffffffffffffffffffffffffffffff82169050919050565b6000610af482610ac9565b9050919050565b610b0481610ae9565b82525050565b6000602082019050610b1f6000830184610afb565b92915050565b6000604051905090565b600080fd5b600080fd5b610b4281610ae9565b8114610b4d57600080fd5b50565b600081359050610b5f81610b39565b92915050565b600060208284031215610b7b57610b7a610b2f565b5b6000610b8984828501610b50565b91505092915050565b6000819050919050565b610ba581610b92565b82525050565b600081519050919050565b600082825260208201905092915050565b60005b83811015610be5578082015181840152602081019050610bca565b60008484015250505050565b6000601f19601f8301169050919050565b6000610c0d82610bab565b610c178185610bb6565b9350610c27818560208601610bc7565b610c3081610bf1565b840191505092915050565b600060c0830160008301518482036000860152610c588282610c02565b91505060208301518482036020860152610c728282610c02565b91505060408301518482036040860152610c8c8282610c02565b91505060608301518482036060860152610ca68282610c02565b91505060808301518482036080860152610cc08282610c02565b91505060a083015184820360a0860152610cda8282610c02565b9150508091505092915050565b60006040830160008301518482036000860152610d048282610c02565b91505060208301518482036020860152610d1e8282610c02565b9150508091505092915050565b6000606082019050610d406000830186610b9c565b8181036020830152610d528185610c3b565b90508181036040830152610d668184610ce7565b9050949350505050565b600080fd5b7f4e487b7100000000000000000000000000000000000000000000000000000000600052604160045260246000fd5b610dad82610bf1565b810181811067ffffffffffffffff82111715610dcc57610dcb610d75565b5b80604052505050565b6000610ddf610b25565b9050610deb8282610da4565b919050565b600080fd5b600080fd5b600080fd5b600067ffffffffffffffff821115610e1a57610e19610d75565b5b610e2382610bf1565b9050602081019050919050565b82818337600083830152505050565b6000610e52610e4d84610dff565b610dd5565b905082815260208101848484011115610e6e57610e6d610dfa565b5b610e79848285610e30565b509392505050565b600082601f830112610e9657610e95610df5565b5b8135610ea6848260208601610e3f565b91505092915050565b600060c08284031215610ec557610ec4610d70565b5b610ecf60c0610dd5565b9050600082013567ffffffffffffffff811115610eef57610eee610df0565b5b610efb84828501610e81565b600083015250602082013567ffffffffffffffff811115610f1f57610f1e610df0565b5b610f2b84828501610e81565b602083015250604082013567ffffffffffffffff811115610f4f57610f4e610df0565b5b610f5b84828501610e81565b604083015250606082013567ffffffffffffffff811115610f7f57610f7e610df0565b5b610f8b84828501610e81565b606083015250608082013567ffffffffffffffff811115610faf57610fae610df0565b5b610fbb84828501610e81565b60808301525060a082013567ffffffffffffffff811115610fdf57610fde610df0565b5b610feb84828501610e81565b60a08301525092915050565b6000819050919050565b61100a81610ff7565b811461101557600080fd5b50565b60008135905061102781611001565b92915050565b60008060006060848603121561104657611045610b2f565b5b600061105486828701610b50565b935050602084013567ffffffffffffffff81111561107557611074610b34565b5b61108186828701610eaf565b925050604061109286828701611018565b9150509250925092565b6000604082840312156110b2576110b1610d70565b5b6110bc6040610dd5565b9050600082013567ffffffffffffffff8111156110dc576110db610df0565b5b6110e884828501610e81565b600083015250602082013567ffffffffffffffff81111561110c5761110b610df0565b5b61111884828501610e81565b60208301525092915050565b6000806000806080858703121561113e5761113d610b2f565b5b600061114c87828801610b50565b945050602085013567ffffffffffffffff81111561116d5761116c610b34565b5b61117987828801610eaf565b935050604085013567ffffffffffffffff81111561119a57611199610b34565b5b6111a68782880161109c565b92505060606111b787828801611018565b91505092959194509250565b600082825260208201905092915050565b7f52616469636150726f706572747920616464726573732063616e6e6f7420626560008201527f206d6f6469666965640000000000000000000000000000000000000000000000602082015250565b60006112306029836111c3565b915061123b826111d4565b604082019050919050565b6000602082019050818103600083015261125f81611223565b9050919050565b7f4e487b7100000000000000000000000000000000000000000000000000000000600052602260045260246000fd5b600060028204905060018216806112ad57607f821691505b6020821081036112c0576112bf611266565b5b50919050565b7f50726f6f6620686173682063616e6e6f74206265207a65726f00000000000000600082015250565b60006112fc6019836111c3565b9150611307826112c6565b602082019050919050565b6000602082019050818103600083015261132b816112ef565b9050919050565b7f54616720616c726561647920696e207573650000000000000000000000000000600082015250565b60006113686012836111c3565b915061137382611332565b602082019050919050565b600060208201905081810360008301526113978161135b565b9050919050565b60008190508160005260206000209050919050565b60006020601f8301049050919050565b600082821b905092915050565b6000600883026114007fffffffffffffffffffffffffffffffffffffffffffffffffffffffffffffffff826113c3565b61140a86836113c3565b95508019841693508086168417925050509392505050565b6000819050919050565b600061144761144261143d84610b92565b611422565b610b92565b9050919050565b6000819050919050565b6114618361142c565b61147561146d8261144e565b8484546113d0565b825550505050565b600090565b61148a61147d565b611495818484611458565b505050565b5b818110156114b9576114ae600082611482565b60018101905061149b565b5050565b601f8211156114fe576114cf8161139e565b6114d8846113b3565b810160208510156114e7578190505b6114fb6114f3856113b3565b83018261149a565b50505b505050565b600082821c905092915050565b600061152160001984600802611503565b1980831691505092915050565b600061153a8383611510565b9150826002028217905092915050565b61155382610bab565b67ffffffffffffffff81111561156c5761156b610d75565b5b6115768254611295565b6115818282856114bd565b600060209050601f8311600181146115b457600084156115a2578287015190505b6115ac858261152e565b865550611614565b601f1984166115c28661139e565b60005b828110156115ea578489015182556001820191506020850194506020810190506115c5565b868310156116075784890151611603601f891682611510565b8355505b6001600288020188555050505b505050505050565b61162581610ff7565b82525050565b60006040820190506116406000830185610b9c565b61164d602083018461161c565b9392505050565b600081519050919050565b600081905092915050565b600061167582611654565b61167f818561165f565b935061168f818560208601610bc7565b80840191505092915050565b60006116a7828461166a565b915081905092915050565b7f43616c6c20746f2073657450726f6f66206661696c6564000000000000000000600082015250565b60006116e86017836111c3565b91506116f3826116b2565b602082019050919050565b60006020820190508181036000830152611717816116db565b905091905056fea26469706673582212201479846d7f980feb3cf8d9198255be2403f1a1a676b0dfc422bc47797864e75764736f6c63430008180033",
  "linkReferences": {},
  "deployedLinkReferences": {}
}